{
  "contractName": "CrowdFunding",
  "abi": [
    {
      "constant": true,
      "inputs": [],
      "name": "name",
      "outputs": [
        {
          "name": "",
          "type": "string"
        }
      ],
      "payable": false,
      "stateMutability": "view",
      "type": "function"
    },
    {
      "inputs": [],
      "payable": false,
      "stateMutability": "nonpayable",
      "type": "constructor"
    },
    {
      "anonymous": false,
      "inputs": [
        {
          "indexed": false,
          "name": "amount",
          "type": "uint256"
        },
        {
          "indexed": false,
          "name": "sender",
          "type": "address"
        },
        {
          "indexed": false,
          "name": "reciver",
          "type": "address"
        }
      ],
      "name": "Donated",
      "type": "event"
    },
    {
      "constant": false,
      "inputs": [
        {
          "name": "receiver",
          "type": "address"
        }
      ],
      "name": "TransferEth",
      "outputs": [],
      "payable": true,
      "stateMutability": "payable",
      "type": "function"
    }
  ],
  "bytecode": "0x608060405234801561001057600080fd5b506040518060400160405280600681526020017f53617479616d00000000000000000000000000000000000000000000000000008152506000908051906020019061005c929190610062565b50610107565b828054600181600116156101000203166002900490600052602060002090601f016020900481019282601f106100a357805160ff19168380011785556100d1565b828001600101855582156100d1579182015b828111156100d05782518255916020019190600101906100b5565b5b5090506100de91906100e2565b5090565b61010491905b808211156101005760008160009055506001016100e8565b5090565b90565b6102bb806101166000396000f3fe6080604052600436106100295760003560e01c806306fdde031461002e5780632c974e12146100be575b600080fd5b34801561003a57600080fd5b50610043610102565b6040518080602001828103825283818151815260200191508051906020019080838360005b83811015610083578082015181840152602081019050610068565b50505050905090810190601f1680156100b05780820380516001836020036101000a031916815260200191505b509250505060405180910390f35b610100600480360360208110156100d457600080fd5b81019080803573ffffffffffffffffffffffffffffffffffffffff1690602001909291905050506101a0565b005b60008054600181600116156101000203166002900480601f0160208091040260200160405190810160405280929190818152602001828054600181600116156101000203166002900480156101985780601f1061016d57610100808354040283529160200191610198565b820191906000526020600020905b81548152906001019060200180831161017b57829003601f168201915b505050505081565b60003490508173ffffffffffffffffffffffffffffffffffffffff166108fc829081150290604051600060405180830381858888f193505050501580156101eb573d6000803e3d6000fd5b507fb227181d60ce0758d04146530f859fd91b8b3fb55353e3349150971499a39a15813384604051808481526020018373ffffffffffffffffffffffffffffffffffffffff1673ffffffffffffffffffffffffffffffffffffffff1681526020018273ffffffffffffffffffffffffffffffffffffffff1673ffffffffffffffffffffffffffffffffffffffff168152602001935050505060405180910390a1505056fea165627a7a72305820a6a18a39a7a3223d8ed3fc9f6bb03ad259845d324a59cc615769b325a806c5de0029",
  "source": "pragma solidity >=0.4.21 <0.7.0;\r\n\r\ncontract CrowdFunding {\r\n    string public name;     //state variable its value is stored in the blockC. and not in memory\r\n\r\n    event Donated(\r\n        uint amount,\r\n        address payable sender,\r\n        address payable reciver\r\n    );\r\n\r\n    constructor() public {\r\n        name = \"Satyam\";\r\n    }\r\n\r\n    // this.state.socialNetwork.methods.tipPost(id).send({ from: this.state.account(this is msg.sender),\r\n    // value: tipAmount(this is msg.value) })\r\n    function TransferEth(address payable receiver) public payable{\r\n        //address payable sender = msg.sender;\r\n        //jo JS script se send kye hai msg.sender, amount directly usse se kaat jaiga and reciver ko transfer kr rahe\r\n        //hai vo amount\r\n        uint amount = msg.value;\r\n        receiver.transfer(amount);\r\n        emit Donated(amount,msg.sender,receiver);\r\n    }\r\n}",
  "sourcePath": "D:/Programs/Blockchain/Practice_CF/contracts/CrowdFunding.sol",
  "compiler": {
    "name": "solc",
    "version": "0.5.8+commit.23d335f2.Emscripten.clang"
  },
  "schemaVersion": "3.0.16",
  "updatedAt": "2020-06-17T21:03:39.209Z",
  "devdoc": {
    "methods": {}
  },
  "userdoc": {
    "methods": {}
  }
}